S01A000044796E6F4465736B5F4D61747465725F5631332E733337D4
S21400000000000120D5430000D1430000D14300008A
S214000010FD290000D1430000D1430000D143000079
S214000020D1430000D1430000D1430000D14300007B
S214000030D1430000D1430000D1430000D14300006B
S214000040D1430000517C0000D1430000D1430000A2
S214000050A17400009D7C0000657C0000697C0000A7
S2140000605D7C0000D1430000D1430000D143000076
S214000070D1430000D1430000D1430000D14300002B
S214000080D1430000D1430000D1430000D14300001B
S214000090D1430000D1430000D1430000D14300000B
S2140000A0D1430000D1430000D1430000D1430000FB
S2140000B0A17C0000617C0000D1430000DD7C0000D4
S2140000C0D143000009640000D1430000D143000082
S2140000D0D1430000D1430000D1430000D1430000CB
S2140000E0D1430000D1430000D1430000D1430000BB
S2140000F0D1430000D1430000D1430000D1430000AB
S214000100D1430000D1430000D143000010B5054C98
S214000110237833B9044B13B10448AFF300800123AE
S214000120237010BDC80000200000000074C6000048
S21400013008B5034B1BB103490348AFF3008008BD65
S21400014000000000CC00002074C60000A3F5803A32
S214000150704700BF174B002B08BF134B9D46FFF799
S214000160F5FF00218B460F461348144A121A0AF070
S2140001704FF80E4B002B00D098470D4B002B00D0AD
S21400018098470020002104000D000D48002802D0EA
S2140001900C48AFF300800AF009F82000290003F0AD
S2140001A0DFF909F0EFFF00BF0000080000000000C4
S2140001B00000000000000120C800002020190020D8
S2140001C00000000000000000BFF34F8F0549064BFB
S2140001D0CA6802F4E0621343CB60BFF34F8F00BFE0
S2140001E0FDE700BF00ED00E00400FA0510B502468A
S2140001F000B3114B1968888890421BD398889042A8
S21400020081BF0968996001209880998898680024C1
S21400021028B904B198604FF6FF729A8009E08A42C6
S21400022004D00131006889B20124F1E70CB19A804C
S214000230986010BD0020FCE7B0060020114A916AC5
S21400024001F1704303F5F813B3F5006F0CD2D2F842
S2140002502838A3F17E62A2F58432B2F5104F03D29D
S2140002600968094A914203D00023037083607047EF
S2140002701968064A9142F7D1012202709A684260D4
S2140002809B69F3E70000E10FAD1007B007B0CD5E45
S2140002901FB50C4640B901A8FFF7D0FF044B029AE1
S2140002A01A6023600423A380002004B010BD00BFA2
S2140002B060010020064BD3F82828A2F17E63A3F540
S2140002C08433B3F5104F01D2536A184700207047A5
S2140002D00000E10F0D4B10B4D3F82848A4F17E635C
S2140002E0A3F58433B3F5104F0BD2246BA4F17E63D1
S2140002F0A3F58433B3F5104F03D2A36B5DF8044B1C
S214000300184740F201105DF8044B70470000E10FFB
S2140003100B4BD3F82828A2F17E63A3F58433B3F5FC
S214000320104F09D2126BA2F17E63A3F58433B3F5A6
S214000330104F01D2D36B184740F20110704700BF30
S2140003400000E10F024BD3F8F80080B2800270473D
S2140003500081E00F7FB50F4A03466D4602F1100696
S214000360106851682C4603C40832B2422546F7D1BD
S2140003705A1E0DF10F010F3311F8010912F8014F43
S214000380844204D19A42F7D1012004B070BD002007
S214000390FBE700BF20A4000070B5154E306810BB08
S2140003A0144B154CE41A154B1C4424F4FF6424F03B
S2140003B00704FFF7C7FF844214D2656BA5B1FFF7A9
S2140003C0C1FF854210D2FFF7BDFF05F150038342FF
S2140003D00AD82846FFF7BEFF30B1EB6933F00803B2
S2140003E002D03460306870BD04F50064E1E700BFF9
S2140003F04801002010000020C4000020CBCE0000E2
S21400040010B50C4648B9FFF7C7FF054B10B1426B55
S214000410126A1A6023600423A380002010BD00BF68
S21400042050010020034B044A9979117500221A6086
S214000430704700BF540D00204806002030B500224B
S2140004408BB01346D91003F00704415C2141CC075A
S21400045041BF02F128016944013201F8283C01330A
S214000460252BEFD10D4C0023D91003F00705415C76
S2140004702941C9075FBFB3FBF2F102FB11312831F6
S214000480694448BFD9B203F1010358BF11F8281CCC
S21400049004F8011B252BE7D10BB030BD72060020F7
S2140004A010B5034CA01DFFF7C9FF0023236010BD45
S2140004B0540D0020084A10B5136840F2E24404FBCD
S2140004C001316043536800F5807001EB5001184419
S2140004D01160506010BD00BF48060020D0B50C4C1F
S2140004E0E38C0A20584309F0B1FB0646A08C0F4661
S2140004F009F0ACFB074B002209F012FC02460B4643
S2140005003046394609F036FD09F01CFE2083D0BD82
S214000510480600200000F43F10B5094CB4F8071058
S214000520A079FFF7C7FFA368064AB4F80D10D18478
S214000530C3F30F239384FFF7D1FF0023236010BD7E
S214000540540D002048060020837DDB0701D5808AF5
S2140005507047D0E901239B1A44BF828A9B1898B241
S21400056070470000084BD3F8F020D3F8F430027040
S214000570110A120C82701A0AC2701A0C1B0E4170F5
S21400058002714371704700BF0081E00F4369416C00
S21400059080691439DA1DB2FBF1F2013203EBC202B4
S2140005A0043000EB4200DA1CB2FBF1F203EBC203AC
S2140005B00333B3FBF1F3023301FB03007047F7B5D7
S2140005C007460E4600257C6CA819644280EA06039E
S2140005D01C4003D02C46204603B0F0BDFB6B012226
S2140005E05B6901A99847019B0133F4D10435EAE71A
S2140005F003460846EFF3108172B6DB6B014ADB68F0
S21400060011601847500D002030B5446800234FF0A5
S214000610FF329C4202D10023037230BD016801EB19
S214000620C30541F833206A600133F2E72DE9F04351
S2140006304668002E47D0056898464FF0000CA9463D
S214000640AE4655F83C40C4F3130701340CF1010CD8
S21400065001D0B94218D0B4450EF1080EF1D12F469C
S214000660002403E0B44207F1080713D055F83430ED
S214000670013304F10104F5D1C1F3130141EA085135
S214000680C7E90012BDE8F08341EA0851CEE900123E
S214000690BDE8F083B8F1030F15D0002303E0B342A2
S2140006A009F108090FD055F83340C4F30754032C5A
S2140006B003F10103F3D1C1F3130343EA0853C9E975
S2140006C00032BDE8F08301230372BDE8F08300BF6B
S2140006D0064B5A685B68064B41F671321A649A6894
S2140006E022F001029A600020704700BF00300E40E2
S2140006F000000E40034B9A6822F001029A60002226
S2140007001A64704700000E40704700002C4B0246EB
S21400071041F67130196C30B518642A484468406850
S214000720986840F00100986001201A61D860D86986
S214000730440789B2154608D59A6822F001029A60E5
S21400074009B100221A64204810E002201F4CD8602D
S214000750D869C00700D554B9D86910F002000BD08C
S2140007609A6822F001029A6019B9194830BD013C16
S214000770EEE700221A64F8E73CB99A6822F0010214
S2140007809A600029F1D01864EFE79C6824F0010411
S2140007909C6001B118640F4BD3F8E4301B0E0A338B
S2140007A003F01F03012101FA03F323F003031A44A5
S2140007B09542DBD055F8043B0133F9D00648D5E71F
S2140007C000000E4000300E4021E000F080969800B9
S2140007D024E000F00081E00F0EE000F0036813F064
S2140007E07E0F03D1406820F07C40704713F07800FD
S2140007F01CBF03F07F03D81F704737B501F10C0408
S2140008004369054601A9012220469847BDF80430F1
S21400081000930122AB6969462046984703B030BD75
S214000820202A0B681EBF4FF0FF3191408B435908BA
S21400083001F055315B1A03F033319B0803F0333374
S2140008400B44017803EB13130A4403F00F334FF005
S21400085001314B43A2EB13630370704737B5044670
S2140008601B22011D00250DF107008DF80750FFF72C
S214000870D7FF63689DF80720B2EBD36F03D123F050
S214000880784003B030BD1B2204F108018DF80750F4
S214000890FFF7C6FFA0689DF80730B3EBD06F06BF22
S2140008A0C04320F078404FF0FF30EAE703684BF291
S2140008B09A22B2EB134F10B5044613D19BB2012B0C
S2140008C013D1FFF7CBFF01300CD0E0684FF6FF7274
S2140008D0B2EB104F4FEA104309D180B2C01A18BFCE
S2140008E0012010BD2368013303D00420F9E702205D
S2140008F0F7E70320F5E700000C4B10B50C4CE41AA4
S2140009000C4B1C4424F4FF6424F00704FFF71AFD84
S214000910A04202D80024204610BD2046FFF7C6FF9E
S2140009200128F8D904F50064F0E700BF10000020A5
S214000930C4000020CBCE0000F0B5054687B00026E8
S214000940EC69013CB44203D80C46204607B0F0BD23
S21400095001B14C1E6F6C2868EB6B05225B6901A920
S21400096007FB0400984701A8FFF7A0FF0128ECD971
S21400097001362146E4E7F0B5046887B00646002550
S214000980091B446CB1FBF4F4F3693068776C5A1EAB
S214000990954206D3716C306801FB0400143007B032
S2140009A0F0BD0134B4FBF3F103FB1144F36B0522F5
S2140009B05B6901A907FB0400984701A8FFF776FFCB
S2140009C00128E7D90135DFE72DE9F04F14469946AF
S2140009D0C36B89B007465B6960680D46012205A9AE
S2140009E09847FB6B01225B6904A928469847059B3C
S2140009F05A1C06D10020A0756075A36009B0BDE83A
S214000A00F08F0122A275227E049904EBC2024FF0F9
S214000A10000CD561A2F820C06668AE42C1F3D310C0
S214000A2001F07F020BD14FF0FF3320602275A360E8
S214000A30237D043B022B25D80020A075DEE7266820
S214000A408642207D18BF84F816C090421CBF002046
S214000A50A07503F07F0001288CBF00200120012A2A
S214000A608CBF0022012290421CBF0022A27511F00A
S214000A707E0F03F07E0300F0E880002BD8D1002321
S214000A80A375D5E711F07E0F0FD1FB6B02225B69D1
S214000A9006A92846984706A8FFF7A0FE237D032B45
S214000AA03AD8DFE803F03434040904A8F4E7227ED9
S214000AB004EBC202CC211184664AD35C129A049ECF
S214000AC01370237E16F07E0B04EBC3030CBFC6F335
S214000AD0C16600265FFA86FAB3F8208083F822A063
S214000AE0BBF1000F00F08C8000231B2204A906A88F
S214000AF08DF81830FFF794FE9DF81830049AB3EB83
S214000B00D26F0CBF012300236375042294E0227E7B
S214000B1004EBC2021084CFE7227E04EBC202062B4F
S214000B201084C9D90123C9E794F816B0BBF1000FA9
S214000B3000F08880B8F1000F09D1DEB1617E012394
S214000B40E37500293CD19E4218D1667614E07B6C92
S214000B50A818594285EA000C1CEA010F1CBF0021A8
S214000B60A175591E01405B1A984569D8A37D002BD4
S214000B70E3D167E0E37DA3B94FF0000B28F0030054
S214000B802844104418F0030F7B6C18BF04305B42F7
S214000B9085EA0002134203D029463846FFF7EBFEEB
S214000BA0A060A27D12B1236943442361237E012BFA
S214000BB00DD801332376B9F1000F0BD1A07D1DE7C8
S214000BC0012EEED0BAF1030F08BFA376D4E70023B8
S214000BD0A375F3E7002AF1D0E37D002BEED0BBF13E
S214000BE0000FEBD1032EE9D0A1684B1CE6D0129B78
S214000BF00093224601233846FFF7E6FEA075DDE7A0
S214000C00FB6B02225B6906A928469847202206A9A4
S214000C100DF10F008DF80FB0FFF702FE1A2207A99C
S214000C20FFF7FEFD9DF80F30079AB3EB926F0CBFEF
S214000C300123002363750822637D002B7FF474AFC5
S214000C400023A3754FF0000BABE7002B3FF4F0AE8C
S214000C5015E700BFE8A4000013B50C460021217676
S214000C600093616813462246FFF7AEFE18B1E37D97
S214000C7003B1A07EA075A07D02B010BD70B50025A2
S214000C8086B004460562E369AB4202D8206A06B025
S214000C9070BD666C2068E36B05225B6901A906FBE4
S214000CA00500984701A8FFF701FE01289EBF236AAA
S214000CB0013323620135E6E7F0B5002587B0044628
S214000CC02E46E369B34202D8284607B0F0BD636CEF
S214000CD0276803FB0677E36B05225B6901A93846A4
S214000CE0984701A8FFF7E2FD012809D807F114018B
S214000CF02046FFF764FC636C143B834208BF013553
S214000D000136DEE7F0B50446466CE36B00685B69C7
S214000D1087B00D46052201A906FB0500984701A8E5
S214000D20FFF7C4FD012804D801A8FFF797FD07B018
S214000D30F0BD29462046FFF7FFFD676CE36B0646CD
S214000D4020685B69052201A907FB0600984701A8F1
S214000D50FFF784FD431CEAD0B54238BF0130E6E712
S214000D60034BD86B80F04000C0F38010704700BF84
S214000D7000300E4008B5FFF7F3FF20B1024AD2F864
S214000D80C830002BFBD108BD0000C64308B5FFF7EE
S214000D90F1FF024B5868C0F3014008BD00300E401A
S214000DA00C4B984210D90C4B984210D902220123C2
S214000DB00A490B640A49D1F8003123F0807343EAEC
S214000DC00263C1F80031704700221346F0E70122A3
S214000DD0FBE700BF0048E8010090D0030000C843CE
S214000DE000400E400F4B5B680F4B30B500221C4690
S214000DF0C9B21D798D4202D11D6885420DD20132DD
S214000E00052A03F10803F4D1032206494B6823F0B0
S214000E10407343EA02634B6030BD04EBC202527972
S214000E20F3E700BF00000E4074A5000070B5074C45
S214000E300748256C41F6713626640021FFF7D2FF7D
S214000E40ADB2B5421CBF0023236470BD00000E4047
S214000E5000F0490270B5064C41F67136256C2664E2
S214000E60FFF7C0FFADB2B5421CBF0023236470BDC0
S214000E7000000E4042EA0323B3F5007F39D016D8AF
S214000E80B3F5807F31D007D85BB3012B1ED000228C
S214000E90134603600A60704740F201129342F6D18F
S214000EA0184BD3F824321A0EC3F30743F1E7B3F511
S214000EB0407F22D040F2013293420ED040F201220F
S214000EC09342E4D10F4BD3F8283202E00D4BD3F80F
S214000ED02432C3F30722DBB2DBE70A4BD3F828320F
S214000EE0E1E7084BD3F81C32F3E7064BD3F81C3285
S214000EF0D9E7044BD3F82032EBE7024BD3F8203285
S214000F00D1E700BF0081E00F2F4B1A6FD96C11F0AC
S214000F10010F02F0060242D0002A40D013284FD913
S214000F20143813288CBF102308232749013BCA6CAA
S214000F30180322F47F4240EA03231343CB64234B77
S214000F40CA6C1B88C2F303222833013202EB8200EC
S214000F5003EB5303B3FBF0F3C86C013B072B28BF2E
S214000F60072320F0EE6040EA036343F48013CB646B
S214000F70174BB3F90030002B10DB2833500800EB7A
S214000F80420203EB5303B3FBF2F30A6D072B28BFB1
S214000F90072322F0700242EA03130B657047D96CF0
S214000FA001F00101114304D1092809D90A3809289A
S214000FB0B8E7DB6C13F00103B7D01AB92728B1E7FE
S214000FC00423B2E70023B0E700300E40BE06002040
S214000FD0C006002070B51D4DD5F82828A2F17E6306
S214000FE0A3F58433B3F5104FE0B004D34FF4017487
S214000FF0204660B070BD136B002BF7D05B6A4FF4D1
S214001000C07269460020984704460028F0D140F296
S2140010100126D5F82828A2F17E63A3F58433B3F51C
S214001020104FE3D2126BA2F17E63A3F58433B3F5BF
S214001030104FDBD2936A002168469847B042E8D04A
S21400104040F20323984218BF0446D1E70000E10FA0
S214001050104A0B46D2F82818A1F17E62A2F5843217
S214001060B2F5104F10B40FD2096BA1F17E62A2F553
S2140010708432B2F5104F07D20C69074A0146A446DF
S21400108000205DF8044B60474FF481705DF8044B18
S214001090704700BF0000E10FF006002037B5044699
S2140010A0684680E8060003C8251D85E8050023730A
S2140010B0069B0B4A2361BDF81C30A38200232360E5
S2140010C0136853B119461B68002BFBD10C6090883F
S2140010D0013080B2908003B030BD1460F7E700BFE7
S2140010E0A806002037B50D461446FFF77FF870B106
S2140010F0036973B1818A4FF6FE72914209D1009559
S214001100ADF8044069460120984703B030BD012081
S214001110FBE70E20F9E7036937B514460D46828AC9
S21400112063B14FF6FE718A4208D100200090ADF8F8
S21400113004006946984728B103B030BD2B600020F4
S2140011402280F9E7009B2B60BDF804302380F3E78C
S21400115038B50D461446FFF749F840B122462946F1
S214001160FFF7D9FF10B92B6803B9208038BD0120DE
S214001170FCE7000007B503790193054A036800936E
S21400118006CA02230830FFF789FF03B05DF804FBA8
S214001190ECA500002DE9F041054688B098460369A5
S2140011A008460E4617469847002869D1D8F80430F6
S2140011B05B0A012B02464FEA530300F10100F8D800
S2140011C098F8034098F802302403DB0203F4006327
S2140011D004F480541C43B8F80030C3F30A032344D5
S2140011E0540304F460441C442A4B03934FF0000855
S2140011F027F078430DF107001B2202A902938DF811
S2140012000780FFF70DFB9DF80720029B8DF80780EF
S214001210FF4343EAC26302A91B2227F078470493E0
S2140012200297FFF7FDFA9DF80720029B6FEA044439
S21400123043EAC26305936FEA14444FF0FF33069304
S2140012400794AB69012207A906F110009847AB691D
S2140012500446012205A906F108009847AB694045F7
S21400126018BF0446012204A9301D9847AB694045C3
S21400127018BF0446012203A93046984700B934B186
S2140012803146284608B0BDE8F041FFF7B6BA08B0C8
S214001290BDE8F08101009AB2034B5A6D12B9586549
S2140012A0A3F85810704700BF480600200C4BD3F830
S2140012B02838A3F17E62A2F58432B2F5104F10B53D
S2140012C00CD21968074A914208D1074C2278012AA5
S2140012D004D11B6A984708B90223237010BD00BFCB
S2140012E00000E10F07B0CD5E640100200C4BD3F880
S2140012F02838A3F17E62A2F58432B2F5104F10B5FD
S2140013000DD21968074A914209D1074C227812F08B
S214001310FD0F04D1DB69984708B90123237010BD7F
S2140013200000E10F07B0CD5E6401002008B50F4B4A
S2140013300F4C1B784FF000556BB1FFF7D7FF0D4BE6
S2140013402B600123A360236823F4E06343F48063E7
S2140013502360FEF739FF2B600123A360236823F484
S214001360E06343F480632360FEF72EFF5F010020F6
S21400137000500E4002020FF0054A08B5937E43F077
S21400138040039376034B00221A70FFF7CFFF00BF8F
S21400139048060020A40600202DE9F0411646054622
S2140013A0FFF7D2F8B04228BF304686B20F46B046A6
S2140013B0B8F1000F09D12EB1AB7DDA0744BF23F098
S2140013C00103AB753046BDE8F0812B68AC8A6968CE
S2140013D01C44641AA4B2444528BF444622463846F4
S2140013E008F008FF6A682B68A98A22441944274433
S2140013F08A4238BF1346A8EB04041FFA84F86B60D1
S214001400D6E7F8B51F46038A04461646EBB9C57DEF
S214001410DDB10123013D0B700222C57500F11001FC
S214001420FFF7BAFFE37D9BB1228ABA4228BF3A464D
S21400143031462046FFF7B0FF238A1B1A2382E37D3E
S21400144013B9638A1B1A6382F8BD00230B70EBE79F
S214001450638A2382E8E72DE9F04104460F461146E9
S214001460FFF772F8A38A181A86B28E4228BF0E4675
S214001470B046B8F1000F0BD13EB1D4E901329A4222
S21400148002BFA37D43F00103A3753046BDE8F0819B
S2140014902368A58AA0681D442D1AADB2454528BF0D
S2140014A045462A46394608F0A5FEA2682368A18A62
S2140014B02A4419442F448A4238BF1346A8EB050530
S2140014C01FFA85F8A360D4E7F8B5044616461F460B
S2140014D011B3FFF739F8A58A281A80B2012829D94E
S2140014E0E37D63B1E068658A05702D0A07D022683F
S2140014F0A38A01301344984228BF1046F4E700231D
S2140015006382A368E360022204F112012046FFF71B
S214001510A2FFE37D0133E3753A4631462046FFF7E6
S2140015209AFF638A03446382E37D13B9238A0344E4
S2140015302382F8BD0020FCE710B5044644EA010308
S21400154013F00303084609D1934201D1002010BDD1
S21400155054F8231040F823100133F5E79200214693
S21400156008F048FEF2E7000013B50379124A033389
S2140015700446019300F14403009306CA0223143084
S214001580FFF78CFD238A0193E368009394E8060036
S214001590237A04F12C00FFF781FD237A2279216853
S2140015A0A4F8450004F1470084F8443002B0BDE8D2
S2140015B0104008F01FBE00BFE4A5000070B50C4C3C
S2140015C00C4B06460D46D4E9010183E80300184695
S2140015D0FFF7D0FD084BD4E9040102221A7283E813
S2140015E00300DE601D821846BDE87040FFF7BCBFF2
S2140015F0C4A400000C1300209004002038B520225C
S21400160004460D460C30002108F002FE4FF0FF3372
S214001610C4E90035A36038BD2DE9F04F2DED028BEF
S2140016200F4689B0044600254FF0FF311046C7F339
S214001630130B904699468DF80B50FFF7DFFF5F457A
S2140016406AD1E1682B468B420DD0A26802EBC3003C
S21400165052F83320561C0FD0C2F3130293450BD119
S21400166041684D1C0AD1237C002B57D1464809B04F
S214001670BDEC028BBDE8F08F0133E4E74046FFF790
S214001680BDFF0DF10B03012241462046FFF7E4FAA9
S2140016900028E8D09DF80B3089F800300020E6E7F7
S2140016A02068361A606CB6FBF0F63FE05046FFF74F
S2140016B0A5FF18EE102A0DF10B0351462046FFF742
S2140016C0CBFA8446B8B1B91C03D0DAF80030BB4276
S2140016D011D19DF80B30DFF8B4E089F80030BEE891
S2140016E00F0045460FC5BEE80F000FC59EE8070071
S2140016F085E807006546DAF8081032E0002DB5D018
S2140017005F45CBD199F80030D8F80420394604F16B
S2140017100800FEF78BFFC1E7BB1CA4D1E66A701C6D
S214001720BED1616A2046FFF707F90646BB1C18BF04
S214001730012308EE103ADFF854A0636A2568019387
S214001740636C03FB0655E36B03A95B690522284619
S214001750984703A8FFF7AAF805F114030093194663
S21400176000254A1C05D0636C009A5B424A4013422F
S2140017709CD031462046FFF7DFF8019BB342BDD030
S214001780002DBDD10646D8E70BE000F0680E00201D
S2140017902DE9F04F4FF0FF3300258B4600F1080689
S2140017A04FF6FF71C0E9091387B00446C3620562AD
S2140017B005633046FEF728FF2046FFF75FFA00284D
S2140017C05BD1D4F824804FF6FF79C84514BF454650
S2140017D000250027E3699F4252D32046FFF74EFAC2
S2140017E0002833D1B34D2046FFF766FA07E1236899
S2140017F0E26B606C576901A9052200FB0530B8470B
S21400180001A8FFF753F80128074603D0C31EDBB232
S214001810012B12D829462046FFF774FA012F2168BB
S214001820676C024608BF0132E06B434607FB0511B2
S214001830FFF7B0FC2046FFF721FA0135E3699D4229
S214001840D5D32046FFF71AFA0028BAD000254FF65F
S214001850FF73C4E908534FF0FF38C1462F46E369CB
S2140018609F423FD3A5EB0805012D5FD8636A4FF66C
S214001870FF7293426FD1904DB5E704F14008DDE763
S214001880E26B2368606CD2F814C001A9052200FB45
S2140018900530E04701A8FFF709F802280FD0C84531
S2140018A015D10BF10102606C216804F1400300FBC6
S2140018B00511E06BFFF76EFC2046FFF7DFF9E369E2
S2140018C001350137B5FBF3F203FB125582E72946D3
S2140018D02046FFF717FAB0F1FF3F14BF02465A46FC
S2140018E00132E0E72368E26B606CD2F814C001A90D
S2140018F0052200FB0730E04701A8FEF7D7FF824627
S21400190001A8FEF7ABFFBAF1010F0DD84845236AD0
S21400191038BF6762804503F1010328BF80468542D1
S214001920236238BF05468146013798E74FF6FF73B6
S21400193063620025E3699D4298D2676C2068E36B7A
S21400194005225B6901A907FB0500984701A8FEF779
S21400195085FF0135EEE7E26B676C2068556901A9E3
S214001960052207FB0300A84701A8FEF777FF626A77
S214001970616C2368514D01FB02331433A3624FF0B0
S214001980FF33E3622A460DF103036FF001012046A0
S214001990FFF742FE002836D1AD68E56229462046AC
S2140019A0FEF70DFE206320B9E16A2046FEF7E3FF4E
S2140019B0E06229462046FEF7DEFF0546A36A9D4202
S2140019C023D16369656C2046A5F11402DD1CB5FBC6
S2140019D0F2F503EBC5050335B5FBF2F5FFF76CF939
S2140019E00235A84280463ED2616A2046FEF7A4FF32
S2140019F00027064604F1400AAF4218D3304D284669
S214001A0007B0BDE8F08FA56AC7E729462046FEF76F
S214001A10D6FD236B03442946074623632046FEF77C
S214001A20AAFF0546002FC9D1C4E90B07C6E74745FC
S214001A3012D3626C236802FB0639E36B05225B69EE
S214001A4001A94846984701A8FEF708FF53460246F4
S214001A504946E06BFFF79EFB31462046FEF76CFFDB
S214001A6001370646C8E73046FEF7CEFD154DA16A9B
S214001A70E36A994201D04B1C01D10025B3E6284603
S214001A80FFF7BCFD0DF10303012229462046FFF7B0
S214001A90E3F830B1D5E900129DF803303046FEF782
S214001AA0C5FDA9684A1CE3D169682046FEF763FFB6
S214001AB00146DDE703E000F016E000F03C0E0020F3
S214001AC013E000F0940E00202DE9F84F930007EE87
S214001AD0903A4E4B41F671341F6C1C644C4C656852
S214001AE064689C6844F00104BFB29C6022F04046E3
S214001AF08C4600254FF00809AE420AD84FF0000E7B
S214001B00424B9C6824F001049C609C6824F004040A
S214001B1011E0DFF80CE100EB8504D3F81C8018F028
S214001B20010F1FD0BEF1000F19D16FF0020E374B18
S214001B309C6824F001049C600FB100241C64BEF174
S214001B40FF3F5ED0BEF1000F5DD117EE902A08F081
S214001B506FFB00282F4808BF0020BDE8F88F0EF165
S214001B60FF3EDAE7BEF1000FDFD001221C61DA602B
S214001B70D3F81CE01EF0040F19D1C4F30A04C4F510
S214001B800064A408A6EB050E744528BF74468CB9FD
S214001B904FF0000ED3F8088028F00408C3F8088039
S214001BA0BEF1000FACD125440CEB840CA4E74FF03B
S214001BB0FF3EBCE70CEB840AE04658F804EBC3F89B
S214001BC018E0DFF85CE0C3F80C90D3F81CB01BF00C
S214001BD0010F08D0BEF1000F02D16FF0020ED9E758
S214001BE00EF1FF3EF1E7BEF1000FF6D0D3F81CE091
S214001BF01EF0020F02D1D045DFD1C9E76FF0010E0B
S214001C00C8E70548A9E70548A7E700BF00000E405B
S214001C1000300E4010E000F021E000F024E000F07C
S214001C20809698002DE9D34FDDF82890BDF82CA0BB
S214001C3004460F4690461E46FEF7D8FA8346BBF18A
S214001C40000F01D0BC4205D94FF6FF74204602B003
S214001C50BDE8D08F9BF808309E421CD1DBF804000C
S214001C603246414608F0E4FAA8B9B9F1000FEDD0C3
S214001C700DF1020201A95846FFF74DFA58B901992D
S214001C8049B1BDF80230534505D15246484608F0E2
S214001C90CFFA0028DAD00134DBF800B0A4B2CEE7E1
S214001CA038B50C4611462568AD1A2A46014408F098
S214001CB0CFFA256038BD000001282DE9F34740F033
S214001CC04C818B88012B40F04A810B681C7814BB32
S214001CD0A54BA64D1C60A64B1C70A64B1C60A64BC5
S214001CE01C60A64B1C60A64B1C60A64B1C70A64B2B
S214001CF01C60A64B1C60A64B1C702B78022B01D1D7
S214001D00FFF7D4FA01232B70A24B00221A7020464C
S214001D1002B0BDE8F087032C40F00D81944B934E43
S214001D201C78002C56D13378002B00F0F880954BA9
S214001D301B78082B02D0402B40F08C80DFF82882DE
S214001D40D8F8000090B9944DD5F82838A3F17E63F2
S214001D50A3F58433B3F5104F5CD34FF4017041F212
S214001D600803984200F0DD80802433E010F003077B
S214001D701CBFC7F10407FFB200EB070ABAF5806F75
S214001D8000F2D380854BDFF800923A46FF211844D4
S214001D9008F03EFA824AD9F800301268C8F800A067
S214001DA00AEB0301914200F2C480724A15681D4492
S214001DB05544DFF8CCA125F4FF65DAF8000025F0DD
S214001DC00705854210D9291A00F50060FEF7A0FA2B
S214001DD040B185243378022B01D1FFF767FA002340
S214001DE0337094E7CAF80050D8F80010D9F800000D
S214001DF0FFF72EF9D9F80030D8F800205A491344D6
S214001E000546DB1B6548C9F80030FFF749FF002D83
S214001E1099D0DEE7FFF7DEF80028A0D1D5F828280D
S214001E200190A2F17E63A3F58433B3F5104FD0D2B0
S214001E30126BA2F17E63A3F58433B3F5104FC8D2BC
S214001E409369012101A898470028C2D1504B01226E
S214001E501A70BFE7002B66D04E4B1B78002B83D042
S214001E604A4F3B6843B9454B4E4918681022FEF767
S214001E7031FA0028AED0ACE713F003021CBFC2F163
S214001E800402D2B203EB0209B9F5806F4DD846487A
S214001E90DFF8E4801844FF2108F0BAF9434A444BBF
S214001EA0D8F80050C7F800909B1A424A134423F40F
S214001EB0FF6323F00703AB4239D8A944FEF71CFDA5
S214001EC008B9FEF73FFA814533D83B68DFF8B09093
S214001ED01D44D9F8000025F4FF6525F00705854266
S214001EE009D9291A00F50060FEF712FA00287FF4D7
S214001EF070AFC9F800503A682B49D8F80000FEF7D2
S214001F00E9F9D8F800303A682049054613442648CF
S214001F10C8F80030FFF7C4FE002DA4D059E781248E
S214001F2058E7862456E7842454E7822452E7872419
S214001F3050E783244EE7042C13D11F4813230221B5
S214001F4043700170FFF7A8F91C4A1D4B1289053231
S214001F509A801C4A1A6042789A710024D7E60D24AB
S214001F60D5E60624D3E600BFF00A0020F60A0020D5
S214001F70F50A00206C130020F80A0020840D0020CB
S214001F80C41200204C010020FC0A0020C0120020D1
S214001F905F010020F40A00200000E10FF006002098
S214001FA070130020740D0020C00E002010000020CA
S214001FB0C4000020CBCE0000680D0020480600209C
S214001FC0540D0020791300002DE9F84F07EE901A03
S214001FD04B4B4C49DFF84C91DFF84CA1D9F8006028
S214001FE05B1A49490B4423F4FF63A0EB060823F071
S214001FF00703984505461446CAF800807DD387181F
S214002000FEF77AFC08B9FEF79DF9874272D8D9F830
S21400201000000719B7F5806F03D93C4B82221A706F
S21400202066E0DFF8FCB0224617EE901A584408F037
S214002030E1F8374BC9F800701A6822B9332F57D920
S214002040DBF834201A601868804508EB07041ED8B1
S21400205084421CD900F110039C4249D30644751BE8
S2140020605D442C4A2B4605F1100153F8040B42F848
S214002070040B8B42F9D12748FEF76CF910B9234BB5
S2140020808422CCE71022FF21284608F0C1F8224D12
S214002090224B286807F00307E41B1C4058B908EADF
S2140020A00300C0F500612144FEF732F92C6040B110
S2140020B0164B8522B3E7A04203D2211A00F5006032
S2140020C0F2E7D9F800201649DAF80000D21BFEF72E
S2140020D001F9D9F80020DAF800301249D21B04467C
S2140020E013440F48CAF80030FFF7DAFD002CDFD1A2
S2140020F0BDE8F88F054B832291E7044B87228EE7D5
S214002100C400002010000020CBCE0000F50A0020FE
S214002110840D0020740D0020C412002000F8FFFF7C
S214002120C00E0020C0120020F80A002037B5002399
S214002130114C0093437A6060D0E90021206802F0D9
S2140021408CFD238CDB050CD563680C4D1B7A2A7836
S2140021509A4206D0012B06D0022B08D063681B7A61
S2140021602B7003B030BD206802F052FDF6E7206801
S21400217002F054FDF2E700BFC8120020A5060020BA
S21400218013B50D4B0D4C1B8BADF804300128ADF884
S214002190003004BF02238DF8043001A908BF0423D1
S2140021A0206808BF8DF8003002F05AFC20686946A7
S2140021B002F06CFC02B010BDC4A40000C8120020DF
S2140021C0034B00221A6118680122032102F058B955
S2140021D0C812002010B5164CA37E5B0626D4FFF767
S2140021E0EFFFA18C226840F2E24303FB012222604B
S2140021F0A37A94F84F2013442522B3FBF2F002FB97
S21400220010332289A3720132636822810A2202FBFC
S21400221001336360238B5A1E22833BB9A27E42F0B1
S2140022204002A276034A1370FFF780F810BD00BF85
S21400223048060020A40600207FB502238DF806304D
S214002240064B5A8B596918680332ADF804206A4663
S21400225002F09CFC009807B05DF804FBC812002052
S21400226010B51E4C1946236986B023B3A2F10800A8
S214002270084322D101AA0321206802F083FC636888
S21400228060615B7A23769DF80430DA1F534253412F
S214002290627E63F30002039BE361BDF8063062765C
S2140022A0638304F1180102202369984720680122FD
S2140022B0002102F06DFC06B010BD02F17F40014324
S2140022C005D10021012006B0BDE81040184712F4E1
S2140022D0A0411ABF00210320FF20F4E7C812002007
S2140022E0F0B5194C194D87B0637A0133DBB2272B52
S2140022F088BF252320466372FFF718FF627D1449C6
S2140023002868E768667C4FF40073023202F01CFC13
S2140023106B68104A5B7A06F00106D15C0391304682
S214002320FFF72EFF012300220593039928680092E9
S21400233004AB049702F0A8F810B1FFF741FFD3E70B
S214002340054B2B6107B0F0BDE4000020C81200204A
S214002350F8000020B9A500000D240000F0B5254CBB
S214002360A37E5A0687B040D4234A218923F0070368
S21400237043F00103A37613681BB192888A4200D10A
S2140023809847A37A1D48234493F82A306375FFF7CD
S214002390CDFED4E900561A4C1A4A63685B7A770871
S2140023A0D15C0191A5EB56060120FFF7E9FE6435E6
S2140023B002964FF4807300260199ADF814303D4420
S2140023C002AA2068049533468DF80C608DF81660D6
S2140023D002F080F8012205463146206802F0D8FB5C
S2140023E02DB1FFF7F7FEFFF7B9FF07B0F0BD064BBC
S2140023F02361FAE748060020540D0020540600200A
S214002400C8120020B9A500007525000002282DE995
S214002410F0411DD002D8012807D0FEE7032800F0BF
S2140024209E80FF2800F09B80F7E74E4C637C990760
S21400243007D5FFF7C5FEFFF753FF637C6FF3410335
S2140024406374637CDA0768D4BDE8F041FFF748BFE1
S2140024504B78DB0740F183804C68227802F00F0847
S214002460B8F1030F5BD0B8F1050F78D13E498B7BEE
S21400247003F00103B3EBD21F4FD10622083104F15B
S214002480080007F0D5FE0646002846D1FFF798FE5E
S214002490FFF7D2FE354D314607465C22284607F048
S2140024A0B7FEAB7EA5F8188043F02003AB76627EBD
S2140024B0237E43EA0223AB84627F237F43EA022320
S2140024C0EB8494F82330C3F3040385F84F3094F874
S2140024D02330C3F3421385F8503004F11E001B234B
S2140024E02B85FDF7ABFFD4F80E30E27CEB60A37CC7
S2140024F02F6043EA0223227D607D43EA02432B617C
S214002500012695F84F30AB722E75E18A3144FDF7FF
S214002510D1FFFFF723FF164B1E70BDE8F081124D6A
S214002520AB7B03F00103B3EBD21FF6D1062205F115
S214002530080104F1080007F07BFE0028EDD1094CE5
S214002540286894F83D204FF40073023204F13C01F1
S21400255002F0FAFA637C43F002036374DDE7FFF7E8
S2140025602FFE71E7E4000020C81200204806002075
S214002570A406002002282DE9F34780460C460BD01F
S21400258003D8012800F0AE81FEE7032800F0B081F2
S214002590FF2800F0AD81F7E74B78AB4D13F0010351
S2140025A000F0BC804A68AF7E117892F80090C1F3C4
S2140025B0001161F38207AF76C9F3C001C7F30017B5
S2140025C0B94240F0A88009F00301022900F0A1807A
S2140025D0032918D0012940F09E804FF0000A567853
S2140025E096B19A48818AFDF7AFFF0B1A9BB2BAF1F3
S2140025F0000F04D0022B86BF023B9BB200239E42F4
S2140026008CBF002301231E46A97EC9F38009C1F3AF
S214002610C002914508D082F00102D20042F02002AA
S21400262021F028010A43AA762BB1AB7E87F001077A
S21400263067F30413AB76AB7E854F13F0200F11D0F3
S214002640696D6FF34513AB76002969D03B7895F832
S21400265058207A7043F003033B70B81C07F0CAFD9D
S21400266000236B657B487A49FDF76EFFAB7E00382A
S21400267018BF012060F34103C3F3C002AB76C3F377
S21400268000139B0043EAC20343EA00103B787A78C3
S21400269023F01C03184338706F4F02324FF4007358
S2140026A03868D2B202F050FAAB7E6468D90709D512
S2140026B06FF30003AB7600236B60FFF7BDFD286069
S2140026C0FDF70CFF002E00F0A180237803F0030333
S2140026D0022B05D0032B3DD0012B40F0978000261F
S2140026E05A486578818AFDF72FFF081A80B226B10E
S2140026F0022886BF023880B200208542ABB200F2C4
S21400270085805248A21C314602B0BDE8F047FEF76D
S214002710DBBE9A4663E70026334675E71E468AE721
S21400272095F828304B48BA1C0DF10701FEF769FEF4
S21400273010F0FF000BD09DF80730002B08BF4FF0BD
S21400274001083B78787068F301033B708AE74FF026
S2140027500108F6E7A3780C2B0AD80C2B0AD8DFE87A
S21400276003F03F2B580909090909600909091800EF
S214002770142B7FD0394A12782AB1162B00F0968097
S214002780182B00F0A2803648072202704370022100
S2140027900DE033480C234FF0FF32037001234370E3
S2140027A08270037102220023C2704371062102B0B8
S2140027B0BDE8F047FEF770BD617A237A294A43EAFE
S2140027C0012393801346284943F8061BD4F80310C8
S2140027D0C2F80610B4F807209A80627A9A7115E05B
S2140027E0627B237B1F4943EA02238B800B461F4AEA
S2140027F043F8062BD4F80320C1F80620D4F80720A7
S2140028005A60B4F80B201A81627B9A7202B0BDE857
S214002810F0872A89134B05329A80154A1A60E278A7
S214002820DCE7D4F803303A8C0D48134003F0FF037E
S21400283022F0FF0213430246092102F8011BC0F8EA
S214002840013000235360B2E748060020180B002032
S21400285074130020300C0020C8120020480D002001
S214002860680D0020540D0020A1040000190500008A
S21400287079130000B4F80530B4F803202048DB08CC
S214002880934228BF13462B85152300216FF00404BE
S2140028906FF0270203700723817081714470C27045
S2140028A003714471C2710372092180E72279E378CB
S2140028B01348134003F00303022B18BF012317220B
S2140028C0027043708370032171E76279A1790D4B22
S2140028D042EA01229A800C4A1A60D4F80320C3F810
S2140028E0062093E7094B9B7E9A078FD45B078DD40F
S2140028F0FFF770FC02B0BDE8F047FFF72FBD00BF42
S214002900680D0020540D0020250400004806002015
S214002910EFF3108072B670470048704700F0490227
S2140029200E49D1F8942002F00702042A0BD8022A96
S2140029300FD811D10A4BD1F80001C0F304200130A2
S214002940B3FBF0F07047074B0748052A08BF03465D
S214002950F1E74FF40043EEE7024BECE700400E4091
S21400296000F04902C0EA210160F5900008B5FFF7C3
S214002970D7FF044BD3F80831C3F308230133B0FB69
S214002980F3F008BD00400E4013B502460C46FEF7B5
S214002990E7F9F0B122B9104BD3F80031FFF7C0FFCA
S2140029A0FEF7DEF9A8B1FEF7F1F990B10A4BD3F8BD
S2140029B00031FFF7B5FF094B40221A611CB10190A8
S2140029C0FEF7D8F90198002102B0BDE81040FEF7E6
S2140029D041BA02B010BD00BF00400E4000300E40AD
S2140029E0044B054A9A60D3F8882042F47002C3F874
S2140029F08820704700ED00E00000000008B5FDF7F5
S214002A00E3FB704747F6FF7082424FF0FF3018BF77
S214002A100020C0B27047000038B5C0F30323013B66
S214002A2004460D46092B1CD8DFE803F033231C1B95
S214002A300526291B2C30184B0022C4F3043442B15F
S214002A401649D1F84401C00703D4D1F84001024228
S214002A50FBD103F1424303F5801304EBC3039B0051
S214002A601D6038BDFFF782FFFEF79AF90C4B002277
S214002A70E3E70C4B0022E0E70B4B0122DDE70B4BB4
S214002A801022DAE70A4B4FF48032D6E7094B0022D1
S214002A90D3E7024B0022D0E7B0400E4000400E4085
S214002AA0B8400E40C0400E40E0400E40E8400E40A9
S214002AB0F0400E4050410E4000F00F00013807284D
S214002AC044D8DFE800F0040F1943232D4335244B88
S214002AD0D3F8943003F00703023B052B38D8214A7D
S214002AE0D05C70471E4BD3F8803003F00703013BE1
S214002AF0032B2FD81C4AF3E7194BD3F8843003F086
S214002B000703013B032B25D8184AE9E7144BD3F8F3
S214002B10883003F00703013B032B1BD8144ADFE77A
S214002B200F4B1B6F13F0010F0CBF072009207047D7
S214002B300B4BD3F85C3103F03003202B0CD0302B3A
S214002B400CD0102B14BF01200720704700207047C0
S214002B500520704701207047042070470820704702
S214002B6000400E40EFA40000F5A40000F9A4000009
S214002B70F5A400000428F8B56CD8474B13F800C03D
S214002B80464B1D5C464B002970D0464C022834F854
S214002B90106060D15C6A14F0300F5CD1424CE46B7C
S214002BA05C6AE40705D55F6A27F0300747F0100730
S214002BB05F623E4C3A4B25441E66AD002B68002BE8
S214002BC0FCD0002A46D06444A4002368002BFCD026
S214002BD002283FD100293DD0314B5A6AD1073CD557
S214002BE04FF48062C3F8A82020225A665A6A12F070
S214002BF0300F0CBF4FF440024FF40002D3F8901091
S214002C0032EA0101FAD1520201D5D3F8A030244DA0
S214002C10012200210220D5F89C70FFF7ABFFD5F803
S214002C2090306A6A224B22F0300242F010026A624A
S214002C30C7F30A07296BFA0903320F2A03EA0103CE
S214002C4028BF0F223B4343EA02732B632E6623689A
S214002C50002BFCD0F8BD0021ABE75A6AD3F89020D1
S214002C6002F44002B2F5400FF8D1CEE7114931F830
S214002C7010101966012101FA05F5D3F890102942C3
S214002C80FBD1002AE6D00124054A04FA0CF4D2F857
S214002C9090302342FBD1DDE7FDA4000002A5000032
S214002CA000400E4008A5000000300E408004F210E0
S214002CB000F8FF0F12A5000000B962B670470000CA
S214002CC02DE9F0410D4F06460D4614460CB9BDE8F9
S214002CD0F081EFF3108872B623462A46314638460E
S214002CE0FEF7F2FB03464046FFF7E6FF002BEDD06B
S214002CF0E41AA4B21D440026E8E700BF300C00200A
S214002D0013B5002301F10804ADF80430ADF8060051
S214002D1021461A4651F8080C083170B90BB1ADF8C7
S214002D20042004220DEB020101200834FFF7C8FF3F
S214002D3054F8101C39B902B010BD51F80C3C1A44B6
S214002D4092B20123E6E734F80C2C0020EDE70000F1
S214002D507FB50130002380B2CDE90101CDE904330F
S214002D606946044B009304200392FFF7C9FF07B09F
S214002D705DF804FB5801002008B5C368002098479A
S214002D80024B1868BDE80840FFF796BF500D0020BC
S214002D902DE9F04FDFF8D4A287B09AF80030009201
S214002DA00546894603F0FF088BBBFDF7A5FD0746E1
S214002DB0FDF7C8FA67B1A44BA44CD3F800B0C3F82B
S214002DC0008094F83430C61B53B323689F4206D065
S214002DD00026009B40461E7007B0BDE8F08F636873
S214002DE09E42F5D1A2689A4B9A42F1D1E368062B2F
S214002DF0EED1626940F26C739A42E9D1E26B954B70
S214002E009A42E5D1C4F8188001238AF800308F4F23
S214002E1097F83430002B40F08A800026B046D8E77A
S214002E20A36B01934022414604F1100007F0F0F92D
S214002E30019BA36340F26C736361854BA36006231A
S214002E40E36004F10800C4E90076FDF7DDFB814B82
S214002E50E36304F1400001F09FFA002865D1636C3B
S214002E6013B16268B2FBF3F394F84320E361002ADF
S214002E70AED0666C002EABD0002BA9D02368B3FB77
S214002E80F6F206FB1233002BA2D16768B7FBF6F307
S214002E9006FB1373002B9BD16C48FDF777FB87422C
S214002EA096D3636940F63472CC3B934290D8B6F51D
S214002EB0007F8DD365480321FDF79AFBE36BD4E9C9
S214002EC000011B689847E36B0646DB6802209847BC
S214002ED0C6B95E485946FEF75BFC5F4B984206460D
S214002EE004D15A485946FEF753FC064656B9636C59
S214002EF0276A5648143B5F43FDF748FB574B87420B
S214002F0038BF1E46002E08BF554AE06B0CBF012393
S214002F10002384F8343002BF136801331360FFF7D0
S214002F202BFF002E3FF470AF52E743469CE7DFF8D6
S214002F3034A10121384645F48025FDF759FB04AB42
S214002F40524629463846FEF767FB044600283AD123
S214002F509DF81030032B36D0022B37D0DAF81060ED
S214002F60F86BFFF709FF002C7FF457AF009B1B7828
S214002F70B342FFF452AF97F83480B8F1000F3FF435
S214002F804CAF32480121FDF733FB2946354A2F481E
S214002F900DF10B03FEF740FB054660B99DF80B30BC
S214002FA0012B73D1DAF81030B34275D1DAF804A0E9
S214002FB03546FB6B65B9F86BFFF7DEFE002D7FF438
S214002FC02CAFF6B205E7284C0026C9E70426C7E76B
S214002FD05B69012203A9504698472249039B09686A
S214002FE0C3F3D31291424FD113F07E0F40D003A803
S214002FF0FDF7F4FB4FF0040BA84228BF2846032831
S214003000D3440446A5EB00050BD9FB6B82085B692D
S21400301049465846984724F003039B4404F00304AB
S21400302099445CB1FB6B01225B6904A9584698473A
S2140030304846224604A907F0DDF8A1445146034855
S214003040FDF799FC8246B4E784030020C00D0020FB
S214003050880D00209CA5000013E000F002E000F0C0
S2140030604C0D0020100E00200BE000F0B80D0020E4
S214003070FB6B02225B6904A95046984704A8FDF73B
S214003080ADFB4FF0080BB7E7044D94E7044D054839
S214003090022B18BF05468EE7034D8CE722E000F0B2
S2140030A00CE000F00BE000F011E000F02DE9F04F2E
S2140030B0012891B004D00024204611B0BDE8F08F5E
S2140030C08A88002A00F01C82AC4F97F800A0BAF15C
S2140030D0000F00F01782AA4D2C78002CECD1DFF8F8
S2140030E0D8B29BF80040002CE5D1A64E306802EB23
S2140030F00009B9F5806F02D982242C70DCE7DFF86E
S214003100A4820968404407F075F8BAF1020FC6F8C1
S214003110009039D0B9F1030FCDD99B48FDF78EF852
S2140031200378D8F80020012B44D14368190E0129F2
S21400313003D1C3F307430A2B44D9944B9A4240F079
S214003140EA808368DA033BD502233B70FEF7CEF8AD
S2140031508F4BD3F82828A2F17E63A3F58433B3F50A
S214003160104F0BD2126BA2F17E63A3F58433B3F536
S214003170104F03D2936809A900209847854B099AF7
S2140031801A60854B0A9A1A60844F33683A78082A80
S21400319001D0402A4FD1DFF814927F49D9F80000B9
S2140031A0096803F0030AC218A2EB0A028A420BD986
S2140031B08324A2E7754CA2420CBF862484249CE795
S2140031C086249AE7882498E7724A116803EB010878
S2140031D08044734BA8EB0A08186828F4FF6828F0A8
S2140031E0070880450BD9A8EB000100F50060FDF745
S2140031F08FF86B4B08B185247FE7C3F800803168F1
S214003200D9F80000A1EB0A01FDF722FF3268D9F8D1
S21400321000305C49A2EB0A02804613446148C9F8B4
S2140032200030FEF73DFDB8F1000FE4D13B78002BEF
S2140032307FF441AF01E0002A6FD133687F2B7FF621
S2140032403AAFDFF86C91D9F8000028BB504BD3F8A2
S2140032502838A3F17E63A3F58433B3F5104F15D257
S2140032600123CDE90A0009A88DF82430FCF7E6FF13
S2140032700A9B1A0E7ED0012A03D1C3F307430A2BFA
S21400328078D9434BD3F828389B6B9847464B186041
S21400329006F0C6FFC9F80000DFF8F480D8F8282842
S2140032A0A2F17E63A3F58433B3F5104FA3D2936ADD
S2140032B03D4AD9F800001168984700289BD1D8F8F5
S2140032C02838A3F17E63A3F58433B3F5104F22D2DA
S2140032D00123CDE9070032688DF8183006A8D9F822
S2140032E000A00392FCF7AAFF079B190E13D0012932
S2140032F0039A03D1C3F307430A2B0CD9244B05A921
S214003300D3F828380091D3F83480264909AB5046C4
S214003310C047002852D08424EFE624490A681A449D
S2140033200A601B4AD2F82818A1F17E62A2F5843200
S214003330B2F5104F14D21E48D1F82C80194A1D49F8
S2140033400068C047804632680E491648FEF7A8FC5B
S21400335040F20323984506D101238BF80030ABE6F4
S21400336040F20228EFE740F2012398453FF45EAFB3
S2140033708024C2E64FF4C07088E700BFF60A00203B
S214003380F50A0020F00A002070010020EB17A603C3
S2140033900000E10F6C130020701300204C01002089
S2140033A0C4120020F0060020140B0020FC0A0020A7
S2140033B0100B0020000B0020F40A00209DF824309B
S2140033C03B701BB9059B0BB140233B70FCF7E4FF39
S2140033D0804648B3D0F834A03B78002B3FF46CAE60
S2140033E0002306930DF11302042306A935208DF859
S2140033F01330FFF7CDFC069BDB0719D53B78082B6F
S21400340014D0BAF1000F13D0534610220CA903F1C2
S2140034102800039306F00CFF20B9039B0A9A1B6A48
S2140034209A4205D8892468E68246D5E7364BECE70B
S214003430B8F1000F12D04FF400614046FCF768FF69
S21400344000287FF4D8AE2AF4FF604FF4006120F025
S2140034500700FCF75DFF00287FF4CDAE3B78082B15
S21400346001D0402B0FD1294B294A186820F4FF635E
S21400347023F007034FF400611360FCF749FF0028B0
S2140034803FF41AAEB7E6234F234BDFF89C807B60F1
S214003490D8F82828A2F17E63A3F58433B3F5104F3D
S2140034A0BFF4A9AE936A1D4AD9F800001168984780
S2140034B000287FF4A0AED8F82828A2F17E63A3F5F2
S2140034C08433B3F5104F18D2D2F82C803368144AE0
S2140034D0D9F800003946C0470746326811491048F7
S2140034E0FEF7DEFB40F203239F423FF435AF40F287
S2140034F001239F423FF4E0AD3AE740F20227ECE7B3
S2140035000D24D9E58124D7E524A500006C130020FE
S214003510C4120020000B0020C91F0000140B00205E
S214003520F0060020F00A00200000E10FEFF3108004
S21400353072B67047FFF7C0BB064A074BD3F8803910
S214003540136F23F007031843044B10671888FDF722
S214003550DBBC00BF00300E400000C643BC060020A7
S2140035602DE98048794B5B685A05A5B01BD44FF00F
S214003570005300221A601CA8FCF760FEFCF70CFF44
S214003580C0B1446BFDF7B2FE1E9B5B0740F1B380F3
S214003590FCF702FFFCF78EFE0446FDF787FE002CC4
S2140035A040F0C08006E04FF000531A68022ADED1D1
S2140035B000221A60BFF35F8F654B5A6A22F480328E
S2140035C05A62D3F8942022F00102C3F89420BFF385
S2140035D04F8FBFF36F8F5F495F4F0A685F4DC3F829
S2140035E098204FF00050C3F89C005D48C3F8A00038
S2140035F0AF4202F1010008604FD07E1E731B43EA03
S214003600530343EA930343EA131343EA132343EAB9
S21400361013430133B3F5807F38BF4FF480735C42A9
S2140036202C4003EB040C674500F28D80072BACEBB7
S21400363007074FF0010C8CBF4FEAD30E4FF0200E59
S214003640B7FBFEF70CFA07F7013F2D1BFFB2361B40
S214003650B3FA83F3B6FBFEF6B5FBFEFE66440CFA41
S2140036600EFC07FA06F60CF1FF3CC3F11E034CEA0B
S21400367006065B0006F0FF0603F03E0343EA062359
S214003680334D43F0407343F001130232C5F89800FF
S214003690C5F89C40C5F8A0300A60BFF35F8F2C4B7E
S2140036A00522C3F894205A6A42F480325A62BFF365
S2140036B04F8FBFF36F8FBFF34F8FBFF36F8F294BC3
S2140036C001225A64284BD3F8FC20284B120E4FD107
S2140036D04AF6E851C3F89011D3F8981141F0040166
S2140036E0C3F89811C3F89021D3F8642142F400522D
S2140036F0C3F864213EE014B9FDF7D8FD5AE7FCF79D
S21400370021FE8442F8D2FCF71DFE04F150038342EA
S214003710F2D82046FCF71EFE0028EDD063696BB990
S214003720FDF7C4FDFCF738FE0446FCF735FE084BF3
S214003730986023689D46636898473BE79DF870301D
S214003740012BEDD124E75B0069E700BF00500E4077
S21400375000ED00E008130020BC000020BC000020A4
S2140037603900011300000E400081E00F00300E40CB
S214003770012AB9D0BD4A136A23F4441343F48813CC
S2140037801362A2F58042136843F480731360B84B4B
S214003790D3F8A42142F4F842C3F8A42102229A6383
S2140037A09A6B02F00F02022A40F0EC80DA6C22F0EC
S2140037B0405222F0010242F00102DA64D3F8EC2013
S2140037C042F44072C3F8EC20AA4A0F211180DA6E48
S2140037D042F08072DA66A84BD3F8800900B1042064
S2140037E0FFF7AAFEA54BA24DC8221A80A44BA02222
S2140037F00F2000241A80FDF787FBA24BAB65CDE9AE
S2140038001444CDE91C44A04BD3F81832C3F3072266
S214003810DBB21E921693EE6CC6F301762246334652
S2140038201CA914A8FDF726FBD5F8EC50C5F3012516
S21400383022462B461DA915A8FDF71CFB1E98169BB5
S2140038404FF41672C11A5143B1FBF2F29B1828BF0F
S21400385001249842C0F09680002C40F093801D9A78
S214003860159C4FF41677101B7843B0FBF7F024181E
S2140038702CBF01210021A242C0F08480002940F024
S21400388081801C981499421A7A43B2FBF7F2891881
S2140038902CBF01220022884274D3002A72D17448B9
S2140038A0C26D22F4FE4222F0020242EA0322764B66
S2140038B0C265022ED3F8302200F01B81032E00F0E2
S2140038C01B81012E14BFD2B2C2F30722120312F4D8
S2140038D0702F57D16648C36E23F470431A436A4B61
S2140038E0C266022DD3F8302200F00881032D00F0C6
S2140038F00881012D14BFD2B2C2F30722120312F4BC
S214003900702F3FD15A4BD3F8EC0020F4704002439E
S214003910C3F8EC205A6EA14238BF2146E72922F4AC
S214003920FF7228BFE72122F0010242EA41025A66EE
S214003930DA6B42F48062DA634AF6E852596B5A63ED
S2140039409A6FD707FCD41B6C4B4A13F0030300F0A6
S214003950FB840123C2F8B43A454B9A6FD607FCD4D1
S2140039601A6C22F003021A649A6F12F00102FBD15D
S21400397041480129C0F8B42A08BF5A633E4B0122C9
S214003980C3F89427394C414D1120FFF795F80021D4
S21400399001220220FFF7EEF8636A23F00103636258
S2140039A03B4B0026C3F8A064A36A23F0070343F04A
S2140039B00603A362374BE362226B374B02F07F624B
S2140039C013432363354B636331462846FEF7DCFF1B
S2140039D03348FDF7E5F90122114602204FF00208B0
S2140039E0FFF7C8F8FDF722FAFDF7C4F9C4F87480AB
S2140039F0FEF796FFFDF7D4F9FEF7B8FF0746FDF78A
S214003A00C5F901463846FDF725FA194B2846012127
S214003A101B68FEF7B9FFFDF7B9F901462846FDF722
S214003A2019FAD4F80001C0F304200130B5FBF0F019
S214003A30FDF7B6F9012211464046FFF79BF8636A88
S214003A40184D43F040536362D4F8C83043F0010386
S214003A50C4F8C8300C4BD3F8D830AB65042406AA9B
S214003A6008A935208DF818401EE000BF00400E4023
S214003A7000300E40BC0600200000C643BE060020F4
S214003A80C0060020372110B70081E00F00F0490281
S214003A900000C8432000050007450BD047A00200E1
S214003AA00148E801005008400896FFF771F9089AA7
S214003AB08DF81640062312F4803F8DF8173009ACB7
S214003AC040F075820DF1170221462C20FFF760F9B1
S214003AD060B30DF1160207A93C20FFF759F918B19B
S214003AE09DF81C0000F001009DF82A3060F30003EA
S214003AF018E0C2F30742E9E6120EE7E6C2F3074211
S214003B00FCE6120EFAE6A96D02F8011B013BFAD29A
S214003B109DF8293063F03F038DF829309DF82A3050
S214003B2043F001038DF82A30C14B5C60C14BC24A9A
S214003B309A6000244FF48071C3E900221C82596108
S214003B40BE4BBF4A5961BF489A60C3E900221C8237
S214003B5000F0FDFCBC48BD4B03602146BC4B4360F7
S214003B6000F068FCB0A3D3E90023BA4E3060CDE97C
S214003B7000234FF0FF334FF0FF3200F089FF0222A0
S214003B804FF0FF31306800F085FF0DF1700A942287
S214003B903C23CDE91C321E935146962330681F9372
S214003BA0CDE920442294374600F058FDA04CAA499F
S214003BB0306800F084FF306801F027F8B4F9001090
S214003BC057F8080B00F08EFF6468002C40F0F18177
S214003BD03846FCF7C7FCB37B64F30003B3739F4B14
S214003BE09F4CA04DDFF80C934FF0200883F801831C
S214003BF05C2283F80483002183F8068304F108001E
S214003C0083F8078383F8058383F8088383F81D8386
S214003C1006F0FEFA42F21073E360934B934AC4E94F
S214003C20005342F2015323814FF4907333840123EF
S214003C3013708F4D8DF814300022C9F800201B2217
S214003C402A800DF1150105AA3E20FFF7A1F81123E1
S214003C500DF113020FA936208DF81330FFF798F8F0
S214003C600DF11202514639208DF81280FFF790F8B8
S214003C7090BB804B9DF8132018681B791C908AF81F
S214003C800430002A00F09C811B2A28BF1B22531DEB
S214003C908DF812300FA9531C0DF175008DF8733096
S214003CA006F0A8FA14A8FCF75DFC734A9DF81230DB
S214003CB012882AF8032024A99A1C51FA82F20021BD
S214003CC0149802F8201C0933BDF8541042F81F0C53
S214003CD022F81B1C8DF8123020230DF1110214A9B6
S214003CE03A208DF81130FFF753F848B9634B5A8BDA
S214003CF01B7F8DF852300323ADF850208DF811301D
S214003D005F4B604800224FF00208C3E900225E4B7A
S214003D10036080F80480FDF72DFA5C485C4B036076
S214003D201023037280F80480FDF71EFC59485A4B96
S214003D3003605A4B80F80480C36080F80880A0F8BF
S214003D401080CDE90038434690E806001430FDF7B1
S214003D50A5F99DF81310002900F03D810FA8FDF786
S214003D602DFC4F484F4B03604FF0100880F804803E
S214003D70FDF700FA4C484D4B4D4A03604FF6FE7B6C
S214003D8008230372C260A0F810B080F80480FDF724
S214003D90EBFB4848484A02600C220272474AC2605F
S214003DA0A0F810B080F80480FDF7DEFB4448454AD2
S214003DB002604FF0020B444AC2600823038280F878
S214003DC0048080F808B0FDF7CFFB4048404B036006
S214003DD0404BC3600123038280F8048080F808B05B
S214003DE0FDF7C2FB3C483D4B03603D4BC3604FF6BE
S214003DF0FE73038280F8048080F808B0FDF7B4FBF9
S214003E003848394B0360394BC3604FF6FE73038264
S214003E1080F8048080F808B0FDF7A6FB344B184AFB
S214003E201A604FF6FF7267E0085500510000000068
S214003E3068010020300C0020480C0020180B0020E1
S214003E40300B0020690345ECF812002061220000C8
S214003E50EC120020C81200201200002000E100E052
S214003E60E4000020D6BE898E55555500480D00202A
S214003E705401002031A400003BA40000C4A40000AC
S214003E80A80600202C1300203EA40000E804002012
S214003E9041A40000C406002044A40000E2A40000E0
S214003EA04C13002047A400004005002058A4000042
S214003EB0B91C00009805002069A40000AD30000081
S214003EC0E00300207AA400001CA50000F0050020F6
S214003ED08BA40000B8A50000380400209CA40000B5
S214003EE09102000088030020ADA400000104000039
S214003EF0B0060020800300209A809DF81220202A19
S214003F0005D8931DB0486375514606F073F99DF8C1
S214003F101120202A06D8931DAC4884F83D3014A9F9
S214003F2006F068F9FEF74CF9227C617CB2FA82F35F
S214003F305B0963F30001237D617462F30303B27BC4
S214003F4002F0010262F386132375637D0BB9062324
S214003F5063759F4BB988B068C4F81600998094F8CA
S214003F603C30042161F3030362F3861384F83C308B
S214003F7094F83D3013B9062384F83D30954BB0686D
S214003F80BA88C4F83E009A80FEF7AAF9924E934B80
S214003F901B782BB1DFF854824046FCF7D5FAE8B917
S214003FA08F4A136923F00403136130BFEFE72246FC
S214003FB0ACE52068B060A288A379BB71BA800EE633
S214003FC008238DF81230874B1A889B78ADF8752039
S214003FD08DF8773066E683480321C0E6EFF3108459
S214003FE072B600231A460DF119014046FDF709FA8C
S214003FF02046FEF761FE9DF8193013B10023C9F87C
S2140040000030D9F80020EFF3108472B6C2F50173C1
S2140040109BB232440DF119014046FDF7F2F9034612
S2140040202046FEF749FED9F8000018440328C9F8D0
S2140040300000B1D93488231D9842ADD307D87088C4
S21400404004284FF0000306D0062800F073810023F2
S214004050C9F80030A0E732796B8004F1FF3A122AE3
S2140040601FFA8AFA18D8012A19D9931E5E4F102B08
S21400407015D8DFE813F0160014002C0014004500D5
S2140040801400EC001400790014001400140014004E
S214004090140019011400BF00522A00F0C580062241
S2140040A089E0BAF1020F40F04381B6F805400022DD
S2140040B0B4F5007F28BF4FF4007403231146504622
S2140040C03B70A7F80140FEF743FE2C80BFE7BAF12D
S2140040D0040F70D1B6F80540A0B2FCF787F860B1BF
S2140040E0027A7C80022A4FF005010CBF01230223CE
S2140040F0397041687B70032055E06C800A225AE0D4
S214004100073CDFF8ECB0CDF800B0A4B20194B6F8E6
S2140041100710B6F805000223ABF10202FDF782FD98
S2140041204FF6FF7A5045044604D17368C3F30F2355
S2140041306B80E3E700230130CDE90033ABF10202E8
S2140041400223514680B2FDF76DFD50451CBF00F1BD
S214004150FF3080B207233B70A7F80140A7F80300A2
S2140041600022114604201EE0BAF1020F40F0E08063
S214004170B6F80500FCF73AF8002851D0037B9907FB
S21400418014D52B88013BADF81A300DF11A02B6F89B
S21400419005000BA9FCF7DCFF024640B90B23BDF86F
S2140041A01A200B993B70FEF7D3FD50E75246736812
S2140041B0C3F30F236B800C4B307969885870012449
S2140041C01C7059801A71CBE70001002028010020DE
S2140041D0FA000020220100207C010020A406002016
S2140041E000ED00E037A4000058010020180B002066
S2140041F087010020B6F80500FBF7F8FF80B1037BC7
S2140042001A070FD5E21E92B25149B6F80500FCF720
S21400421069FF02460028CAD113233B700146C2E755
S2140042200122C4E70322C2E7B6F80500FBF7DEFF6B
S21400423000283FF40CAF037B5B077FF508AFE21E58
S2140042404349B6F8050092B2FCF74CFFFFE6631F41
S2140042509BB2022B01D0102B6AD10022CDE900229E
S214004260DBB23C4AB6F80710B6F80500FDF7DAFCF4
S2140042704FF6FF73984204463FF457AF2B880DF174
S2140042801A02043B0BA9ADF81A30FCF761FF024690
S21400429008B16C808FE7BDF81A200B997C80092343
S2140042A03B70931C7B7026E7631F9BB2022B01D0EA
S2140042B0102B3DD14FF0000ACDE900AADBB20393E4
S2140042C0244AB6F80710B6F80500FDF7ABFC4FF623
S2140042D0FF7B5845039B04463FF427AF0130CDE9EA
S2140042E000AA1C4A594680B2FDF79CFC2B8858450C
S2140042F08246A3F1060318BF00F1FF3A0DF11A0239
S2140043000BA9204618BF1FFA8AFAADF81A30FCF738
S2140043101FFF02460028BCD1BDF81A200B997C80EE
S21400432011233B70131D7B70A7F804A005203AE705
S214004330042240E7CDE90D33074B0B930BA902236C
S2140043400C93FEF7DDFC82E6C2F8B43AFFF716BB24
S2140043508301002085010020100000200D4AD2F8BD
S214004360E430D2F8E0109B0003F03C03C1F3811167
S2140043700B438370D2F8E03003F03F034370D2F86B
S214004380E830D2F8EC2003F0F003C2F30312134334
S2140043900370704700FF0FE013B5044601A8FFF74F
S2140043A0DDFF9DF80630238040F201136380074B43
S2140043B0D3F8E4301B0E0A33012203F01F0302FA7F
S2140043C003F30020636002B010BD00BF0081E00F61
S2140043D0FEE7000008B5FEF703FB124B12498B42BE
S2140043E012D3124B124900208B4218D3FBF7B2FEB1
S2140043F0186850F82240586840F822400132986801
S2140044008242F5D30C33EAE70022F8E71C6844F84A
S214004410220001325C68A242F8D30833E4E70022A7
S214004420F8E700BF80C600008CC600008CC60000FF
S2140044308CC60000F8B50D4610B900242046F8BD1D
S2140044400E4F3E68002EF8D100F084F8044600288F
S214004450F3D0386000F0DAF8204600F0A4F838B15F
S21400446030463E6000F0D2F8204600F097F8E4E7C9
S214004470002DE3D02046A847E0E700BF74140020D4
S2140044800846114600F0D4B8F7B5114D04466E68DC
S2140044900F4600200121CDE90032B047DDE90032A9
S2140044A006463946204604F021FE044618B92B6815
S2140044B00120984704463EB100F0E2FB00B91CB16B
S2140044C000216B6808469847204603B0F0BD00BF41
S2140044D024000020F7B5104D019204466B680F4685
S2140044E0002001219847019A06463946204600F0EA
S2140044F0D3FA044618B92B680120984704463EB103
S21400450000F0BEFB00B91CB100216B680846984756
S214004510204603B0F0BD00BF240000207047000016
S214004520431E033306D8044B984228BF1846642817
S21400453038BF6420704700BF40420F00431E012B67
S21400454003D9031F5842584170470120704700F0B6
S214004550B0BE0000F8B50546FEF7DAF90E4B1E6849
S214004560074626B93846FEF7A7FB344610E0B4687F
S21400457084B1237C9C46DB070CD495E80F004CF0F6
S214004580010C84E80F0084F810C03846FEF794FB50
S2140045902046F8BD3668E4E7180000204FF4A07205
S2140045A0002105F035BE10B50021044600F085FA5E
S2140045B02046BDE8104004F0A7BB000038B505460D
S2140045C00C46E1B10B6843B11B68013317D0CB68CA
S2140045D01BB18B68003B18BF01231846D722412128
S2140045E000F0EEFA204600F066FE064A002313604E
S2140045F0054A85F8D830C5E92243136038BD002344
S214004600EBE700BF7C1400208014002010B50446A1
S21400461018B9054B054A136010BD03F02DFDD4F8FC
S2140046209430002BF6D1F4E71D4500001C00002056
S21400463010B50C4603F036FD1CB103F097FD0128BB
S214004640FBD1034BBDE810405B68002103201847F0
S2140046502400002003F0A8BE03F0BCBE08B5024646
S2140046600868FFF75DFF08604868FFF759FF486075
S2140046708868FFF755FF8860C868FFF751FF0B6929
S214004680C860581C03D00B48834228BF03460B6102
S2140046904B69581C03D00748834228BF03468869E5
S2140046A04B61FFF73DFFBDE808408861104604F007
S2140046B081BB00BF40420F002DE9F84FD0F88C3088
S2140046C007460E4613B1038B8B4246D0D7F888B008
S2140046D0BBF1000F44D0DBF80830002B40D0DBF8ED
S2140046E00C20002A3CD0D7F89CA0BAF1000F3AD094
S2140046F04FF000094D46C84601E0DBF8083005EBF0
S214004700C50403EB84040135E389B34216D8238A33
S214004710B342384612D3B4F91230B7F9241099428E
S214004720A04603EAE37250DD97F8CC10FEF76AF96C
S2140047307B7D8342814648D9DBF80C209542DCD34A
S214004740B8F1000F29D00023424619463846D04714
S2140047503E83C7F88C8087F8D5900020BDE8F88F98
S2140047600320BDE8F88FD1465446514647F6FF75FC
S21400477004EBC40803EB8808B8F80E30B3421AD826
S214004780B8F81030B34216D3B8F91220AA4202EA9B
S214004790E27204D14FF0FF09DAE70120DEE797F86E
S2140047A0CC103846FEF72EF97B7D83428146414683
S2140047B0CED9DBF80C200134A24202D9DBF808304F
S2140047C0D6E70029E9D08846C2E7A046BBE700BF87
S2140047D02DE9F04182B0D0F89C8016469DF8202046
S2140047E08DF8072004460D461F46B8F1000F2ED060
S2140047F000220DF107031146C0471949194A0D60FA
S214004800194BD4F8881011602046D4F88C201A6012
S21400481003F02CFF05461EB9284602B0BDE8F0811D
S214004820B0FA80F040F265323321400900F0C8F952
S2140048303946204604F0BEF90C4BD4F88C101B68A1
S214004840054620469847284602B0BDE8F081417DDF
S21400485090F8D530994228BF194603F09DFECCE764
S214004860781400207C140020801400201C000020F7
S2140048702DE9F04385B005460F4614461E4604F063
S21400488042FC04F049FC00283BD1DFF82481D8F82C
S21400489000301BB1D5F8882093421FD003F066FC89
S2140048A0012838D1D8F800308BB31A687AB3D5F817
S2140048B0881009688A4246D0D5F88C301A6828468F
S2140048C004F06CF938B9012400963346224639467E
S2140048D02846FFF77DFF05B0BDE8F083304B1B6828
S2140048E0002BDBD0D5F88C209342D7D12D4B1B68FC
S2140048F09F4222D003F03AFC0128E5D04FF0010990
S2140049000BE0274B00221A6004F0FEFBBDE7D5F84B
S21400491088301968D0E74FF00009012003F0C2FB89
S21400492003F024FC0128FBD11F4B00215B68032009
S2140049309847B9F1000FB5D0C6E706B174B90020A4
S21400494005B0BDE8F083164A1268D2B11168D5F8F2
S2140049508C2012689142B6D05968B0E7D5F89C40D2
S21400496001228DF80F2084B100220DF10F031146AD
S2140049702846A0470D4BD5F88C101B68284698474C
S214004980DDE7D5F88C201268E6E7697D95F8D53026
S214004990994228BF1946284603F0FEFDEAE700BF05
S2140049A08014002078140020240000201C00002022
S2140049B07C140020F8B505460E46FDF7A9FF3146E3
S2140049C007462846FFF778FE044620B13846FEF72D
S2140049D073F92046F8BD0346024631462846FFF7DF
S2140049E047FF04463846FEF767F92046F8BD00BF85
S2140049F0F8B50D460646FFF7E1FDEF6800224FF6D4
S214004A00FF734FF0240CD0B2874206D81C462146CE
S214004A103046FFF7CFFF2046F8BDA9680CFB001113
S214004A20CC899C4202D2002CF1D023460132EAE720
S214004A30008B70470A7838B505461046FFF77EFDAE
S214004A4060B14C782046FFF779FD38B12243530712
S214004A5004D42846BDE8384003F0D0BC012038BD59
S214004A60FFF7E8BF10B504460878FFF767FD58B1B2
S214004A704A781046FFF762FD30B1042A04D020467B
S214004A80BDE8104003F0F2BC012010BDFFF7EABFFE
S214004A9003F0B0BA03F008BC37B504460D460192E1
S214004AA0FFF788FF38B9019A2946204603B0BDE8CB
S214004AB0304002F037BA03B030BD04F035BB38B52D
S214004AC0044648880D4600F0F5FBD4F89C302BB918
S214004AD029462046BDE8384003F010BD022038BD08
S214004AE003F0BABD73B5044600200D4600F0E2FBA5
S214004AF0D4F89C6069462046FFF7F2FF5EB99DF841
S214004B0000102A462046FDF77DFF0146204603F0AA
S214004B106FFD02B070BD00231A4629462046B047F6
S214004B20F7E738B505460C46FDF7F2FE296BEB6A4B
S214004B300C402343EB62FEF7BFF800200CB90021BF
S214004B4038BD4FF40071FBE703F0BDBF03F0DDBFD7
S214004B5007B54FF400730A49ADF806300DF10602AA
S214004B60FFF7F4FFBDF80630B3F5007F05D1022845
S214004B7008BF002003B05DF804FB0120FAE700BF81
S214004B80C81500200846114600F0BABA03F088BFE0
S214004B9038B50446154609B103F0D6FF25B12046C0
S214004BA0BDE8384003F0D2BF38BD0000024B1960A4
S214004BB0024B1860FEE700BF20000020CC17002044
S214004BC008B550B90548064B01601A60054B1A68CF
S214004BD0054B1A601868FFF7E9FF08BD20000020A3
S214004BE0C817002074140020CC170020837C03B163
S214004BF008470220704710B5044604F0F3FA204632
S214004C000321BDE8104003F0C7BAFFF7F4BF000069
S214004C100149FFF7EBBF00BFB99100000149FFF75C
S214004C20E5BF00BF8D91000010B5837C0C4693B1A4
S214004C304968002204F0E0FA206890FAA0F0000A22
S214004C4001F0ACFBA17A2089002281F0010104F07A
S214004C501FFB002010BD0220FCE71FB5CDE90112A6
S214004C60ADF80C3001A99DF818308DF80E30FFF71E
S214004C70DBFF05B05DF804FB00207047002070479E
S214004C80014B1878704700BFD01700202DE9F74F6A
S214004C9005681C4605F007059DF830300193AB1DEE
S214004CA001259D400646174605F1FF380B46A1B183
S214004CB0416804EA080BA5EB0B0A41F0005952457F
S214004CC009EB0B0113D95246184605F093FA7A1BE6
S214004CD05A444946504405F08DFA019B23B13C44A2
S214004CE048EA05052C40F46003B0BDE8F08F18468E
S214004CF0F1E700000D4BD3F8E020D20314D50C49A1
S214004D004FF48032C3F8E820C1F8EC209A6BD1B299
S214004D10C2F3072299679A6704229A6700229A6765
S214004D209A679A679A679A67704700BF00100840AC
S214004D300010084638B50C4C226060600D46FDF742
S214004D40E7FDD4F8E0305B0758BF04234FF00102BC
S214004D50A262A56058BFC4F8E830FDF7ADFF0DB1FC
S214004D600223A36238BD00BF00100840044B186041
S214004D70044B40F6FF72196358635A65704700BFCC
S214004D80D4170020001008402DE9F04F042A83B005
S214004D9005463AD90B7883614B7883618B788361BB
S214004DA0CB7883610068D5F808B06E6800F007001D
S214004DB04FF00108063008FA00F808F1FF3909EA52
S214004DC00B07A2F1040AA8EB0702924501F10404BE
S214004DD046F000560DD8F0192146524605F00AFA5C
S214004DE00AEB0B0348EA09021340AB6003B0BDE8C8
S214004DF0F08F2146F019019205F0FCF9019AA118EE
S214004E00AAEB080230463A44E8E7013A032AEDD80E
S214004E10DFE802F00B08050211F8013B836111F888
S214004E20013BAB6111F8013BAB610B78AB6103B0A2
S214004E30BDE8F08F37B5002500951446FFF726FF2E
S214004E40204603B030BD0000402938B514464FF068
S214004E5001020DD8084DC5F8B8200A460146074895
S214004E60FFF792FF34B10423C5F8B830002038BDF0
S214004E701046FCE72046FAE700100840901008406D
S214004E8010B5FDF745FD184B184901229A65C3F881
S214004E9088201A66164A5A660722C3F884200A80B3
S214004EA0144900220A804FF4A021C3F8E81003F149
S214004EB0C0630446C3F8EC100F4B1A600F4BD3F8D0
S214004EC088305B020AD50E4B18680E4B4FF48002F2
S214004ED0C3F88820416BA03001F07CFA2046BDE87C
S214004EE01040FDF7E9BE00BF001008405A18002029
S214004EF0D8170020581800205C18002000400840F2
S214004F0074140020004008440D4B07221A800D4BF5
S214004F1000221A800C4BC3F890204FF40052C3F8BE
S214004F209400C3F8B420094AF021116402F100721B
S214004F30A02111640122C3F8B820FFF7A1BF00BF6B
S214004F405A18002058180020001008400000084496
S214004F502DE9F0410446A0B13B4E3C4FFDF7D8FC8E
S214004F6031883B4B01F07802032C054601F07F0E9A
S214004F701A4456D1D7F800C0BCF1000F03D1FDF794
S214004F809BFE03204BE02CF00104386820F0010063
S214004F90A0424BD100233B6023886FEA43436FEA6D
S214004FA053439442238036D12A4FDFF8BCC03B8857
S214004FB0ACF18008CC18083B9BB202F10801E01A5D
S214004FC0614528BF4146082B80B204D9B1F900E0FC
S214004FD0BEF1000F35DB947812881F493B80C2F380
S214004FE00C02C0B2CA6304F007043080C866C1F879
S214004FF08430FFF77FFE042C0DD1184BD3F8883091
S214005000174B1868174B4FF48002C3F88820416B83
S214005010A03001F0DFF92846FDF74EFE0020BDE87F
S214005020F081601E012898BF1446AEE70948734415
S2140050300088E31A48BF803308389842ACDC28461C
S2140050409DE70A46B7E700BF581800205C18002006
S214005050D81700205A1800200010084000400840CA
S2140050607414002000400844581800200E480F4AC8
S214005070038812880E491A44073A02F078020A4456
S21400508008339BB2038090780A4900F00700042892
S214005090C1F8843004D101F540514B681B03FCD4A1
S2140050A0054B1A60704700BF5A1800205818002099
S2140050B0D8170020001008405C18002010B5054CDA
S2140050C0206828B1C30701D4FFF742FF00232360FE
S2140050D010BD00BF5C180020084B4FF48032C3F8A8
S2140050E0EC2003F17C43C3F8E420D3F88030C3F30C
S2140050F00C03782B01D8FFF7FDBD7047001008445D
S2140051002DE9F84304460E46FDF702FC4F4B504D82
S2140051101A8881464F4802F07801032C078802F06F
S2140051207F03294417D14C4804688CB9D419073C2E
S21400513004F078042C442B44E31A48BF8033BB4267
S21400514010DB4846FDF7B8FD00242046BDE8F8838E
S21400515024F00104EFE7012C02D0022CEBD1083F2B
S2140051600C46E8E7002E42D08C4244D13B4AD2F8A7
S2140051703C803A490F6B07F00707BA1D0127974096
S214005180D1F88020C2F30C029A4247DDB4F9003011
S2140051902588002BD5DBA378C5F30C0503F00703A1
S2140051A07A1EA5EB08053A43052B337005EA02057F
S2140051B02CD82DB2E84340F207420421C00FFFF777
S2140051C0FFFC7580E37833747B1E03EA0808244BE3
S2140051D01B6803EB0802B260AAB218FA85F5BD4256
S2140051E08BBFA7EB08070023B780B280F360484662
S2140051F0FDF762FDA9E7A4F10802AA4238BF04F150
S2140052007802B2F80080C8F30C08B2E7154BDB6CE6
S214005210002B0CBF00230823ED1ACAE78A6B12493D
S2140052207B1EA2EB08023B4313401DB24A685BB9E3
S214005230C2F30362032A0CBF082200223270738076
S214005240D1F890301B0ABEE70822F7E7581800206E
S214005250D81700205A1800205C18002000100840BC
S214005260D41700200000084000400840431C08D027
S2140052700449D1F83C311B0C1B0480B20343C1F82F
S2140052803C3170470040084010B5044608680A469E
S214005290FFF7ECFFD4F88C304BB15B693BB111687B
S2140052A0013104BF6FF00101116012681A6000201E
S2140052B010BD70477047932231210120FFF780BC54
S2140052C038B50D46044600F039FFAC4042F2107384
S2140052D064095C436423B0FBF3F0B4FBF0F038BD24
S2140052E0034B1A689B88026083800020704700BFCB
S2140052F0320000200F4B0228D3F8883104D183F403
S2140053000010C0F340507047012805D113F4400F39
S2140053100CBF01200020704750B9074AD2F8D400CD
S21400532010F0010005D083F48000C0F38050704771
S2140053300020704700400E400081E00F0B4B5B885A
S214005340B3F5E16F8BBF5A23C823502278229842C8
S2140053508CBF172310230B70054B1B7823B190428C
S21400536094BF002001207047184670473200002086
S2140053703000002013B5234B1B78032B04463ED089
S2140053800DF10701FFF7DAFF1E2C8CBF1E491F49DF
S2140053909DF807204FF001038CBF01240024C1F8BC
S2140053A0083170B1194B4DF60171C3F804111202A1
S2140053B003F1007342F44042C3F80421144BA3F8EF
S2140053C0D420134991F8D82022F00102024322F09B
S2140053D0020242EA4402D3B20E4A81F8D83012786A
S2140053E06AB9B1F8D420A1F8D62023F0040242EA24
S2140053F0800323F0080343EAC40381F8D83002B0E0
S21400540010BD00BF3200002000400846004008449F
S214005410001F002162180020084B094AD3F8883183
S214005420DB4303F4FE1343F40053B3FA83F30E3363
S214005430A3EB4313013B1370704700BF00400E40C0
S2140054403A00002001280CD0022802D020B100200B
S2140054507047054B18787047034B18780430C0B275
S21400546070470720704700BF3A00002002289ABF06
S214005470014B185CFF20704700A6000030B51F23C4
S214005480B0FBF3F35C1CE5B2C3EB43134FF0FF3401
S214005490AC40C01AE4430130E4B2C0B21460086005
S2140054A030BD00002DE9F743424E434F96F800907A
S2140054B01546424AD2F8C820B9F1010F044688467C
S2140054C007EA020705D147EA00600C7000232B604C
S2140054D040E03B4A1278904228BF1446002B14BF87
S2140054E00423002323440B70002C48D0013CE4B274
S2140054F04FF030632B606A46204601A9FFF7BEFFD7
S214005500DDE900302F4A98F800C0127847EA0060BC
S21400551040EA833040F47F5040F00800002A30D044
S214005520B3FA83F32849294AC3F11F035BB2B9F1E2
S214005530020F18BF0A46591C27D0D75CFFB22A684C
S21400554022F07F41BCF1000F21D141F0306141F0E3
S214005550040129607288B2F5E16F20F47F538CBF96
S2140055605A22C822944223F008039ABF180A00F46D
S2140055707F5043F6C870184303B0BDE8F083144B61
S214005580B8E7FF274FF0FF33D9E7FF27D7E7013308
S21400559003D07B1EDBB2FD2B06D922F07F4323F01F
S2140055A0040343F07F4392E741EA076343F00403B2
S2140055B08DE700BF320000203F00C0E0001F002142
S2140055C03A00002065180020B883E00FB083E00F93
S2140055D00400000B73B50446C820FFF7CBFE2C4B27
S2140055E02C4D1878032801D0FF2C03D1FF202870FB
S2140055F002B070BD01282CD1072C204628BF0720FA
S21400560001284FF0000301AA0DF1030138BF012065
S214005610FFF748FF0446204B204E019AC3F8582156
S214005620C6F8C8409DF803002870FFF7A3FE019A4D
S214005630130203F4E06343EA1263194AA6F8D03073
S21400564012781AB9C6F8CC40A6F8D2309DF80300F6
S214005650CEE790B9042C14D803460646201A01AAB1
S2140056600DF10301C0B2FFF71DFF4FF4800304469F
S2140056705EB10C4AC2F80831CDE700231E46184634
S214005680ECE701231E460420E8E7074AF2E700BFDE
S214005690320000203100002000400840001F00219A
S2140056A062180020004008460040084408B500F094
S2140056B0F5FF094B094A002808BF1A46136823F469
S2140056C07F115B0803F4FE130B431360044B4FF08B
S2140056D00072DA6108BD00BF18410840004108406A
S2140056E00040084008B500F0D9FF064B4FF4001202
S2140056F028B1C3F800214FF000621A6208BDC3F853
S2140057001821F8E700400844014B1868704700BFAE
S2140057106818002070B505460E46C0B201F00F01AD
S214005720FFF7CEFDC6F303110446C5F30720FFF7C7
S214005730C7FDC6F303210444C5F30740FFF7C0FDC9
S214005740204470BD436C012B38BF01232DE9F04780
S2140057509A46474B474F9B69474E484D03F4E073C4
S214005760A3F5C072804646485142514102685245F0
S214005770444A0FD114788C420CD198F8CCC03C78AF
S214005780A44507D198F816C03478A44502D1A88855
S214005790BDE8F087B3F5C07FC0F800A011704CD10B
S2140057A0D8F8904024B12368082B5AD994F838408A
S2140057B00F212046FFF784FDBAFA8AF3002854D05A
S2140057C0B0FA80F29B1A002BC4BFC3F10F09D84071
S2140057D0274BD8BF4FF00F0950454FEA0440C3F897
S2140057E0BC0003F1806340F6FF7288BF09F1FF3901
S2140057F0C3F8B82003F100734FEA0921C3F8B810C4
S214005800FFF788FFA88000F099FC09F01F094FF405
S214005810FA7304FA09F45C4341F66A03B0FBF3F04A
S214005820194BB4FBF0F40A2044431C6098F8CC30C3
S2140058303B7098F816303370A9E798F8CC30022BF6
S21400584006D1124B1B78002B14BFC8249624AFE752
S214005850012B08D00D4B1B78002B14BFF024B4246A
S214005860A6E70024A4E73224A2E72022AAE700BF86
S2140058700060084039000020380000203200002078
S2140058802C000020601800206818002065180020F2
S214005890FF290DD00F4B1048C3F850010B04090523
S2140058A003F4E02301F0F87119430C4BC3F85011D0
S2140058B0FF2A0DD0074B40F2F711C3F85011130121
